:1000000071C0000017C1000045C1000079C10000A7
:1000100086C0000084C0000082C0000080C00000D4
:100020007EC000007CC000007AC0000078C00000E4
:1000300076C0000074C0000072C0000070C00000F4
:100040006EC000006CC000006AC0000068C0000004
:1000500066C0000064C0000062C0000060C0000014
:100060005EC000005CC000005AC0000058C0000024
:1000700056C0000054C0000052C0000050C0000034
:100080004EC000004CC000004AC0000048C0000044
:1000900046C0000044C0000042C0000040C0000054
:1000A0003EC000003CC000003AC0000038C0000064
:1000B00036C0000034C0000032C0000030C0000074
:1000C0002EC000002CC000002AC0000028C0000084
:1000D00026C0000024C0000022C0000020C0000094
:1000E0001EC0000011241FBECFEFD1E2DEBFCDBF86
:1000F00012E0A0E0B2E0E6EDF3E000E00BBF02C0EA
:1001000007900D92A230B107D9F722E0A2E0B2E049
:1001100001C01D92A930B207E1F721D15AC170CFB9
:100120001092000280910602811103C09FEF90930C
:100130000002813019F49DE690930002823019F498
:1001400081E080930002109202021092030210924A
:100150000402109205020895809102029091030218
:10016000A0910402B0910502181619061A061B0682
:1001700064F40197A109B1098093020290930302EC
:10018000A0930402B09305020895809107028111A3
:100190000DC080E29EE4A0E0B0E080930202909364
:1001A0000302A0930402B09305021DC0813069F4DC
:1001B00080E197E2A0E0B0E0809302029093030216
:1001C000A0930402B09305020EC0823061F488E867
:1001D00093E1A0E0B0E08093020290930302A09329
:1001E0000402B093050280910602813089F4809167
:1001F0000002982F9370933029F4880F990B809305
:10020000000214C0880F990B8160809300020EC019
:10021000823061F4809100028F3F29F0880F8F5F58
:100220008093000203C081E080930002809100026D
:1002300081BB08951F920F920FB60F9211240BB637
:100240000F922F933F934F935F936F937F938F936F
:100250009F93AF93BF93EF93FF9380910802809594
:1002600080930802882311F05BDF01C011BAFF916F
:10027000EF91BF91AF919F918F917F916F915F911E
:100280004F913F912F910F900BBE0F900FBE0F908B
:100290001F9018951F920F920FB60F9211240BB654
:1002A0000F922F933F934F935F936F937F938F930F
:1002B0009F93AF93BF93EF93FF938091080288239E
:1002C00061F080910602082E000C990B019663E004
:1002D00070E058D08093060223DFFF91EF91BF9129
:1002E000AF919F918F917F916F915F914F913F91CE
:1002F0002F910F900BBE0F900FBE0F901F9018956F
:100300001F920F920FB60F9211245F936F937F93FA
:100310008F939F93AF93BF9380910802882399F0A6
:1003200080910702082E000C990B019663E070E0A3
:1003300029D08093070210920202109203021092B9
:10034000040210920502BF91AF919F918F917F910E
:100350006F915F910F900FBE0F901F9018951AB874
:1003600087E08BB99FEF90BB11BA9AE29093690036
:100370008DBB789480910802811102C011BAFACF26
:10038000EBDEF8CF97FB072E16F4009406D077FD2E
:1003900008D00BD007FC05D03EF4909581959F4F77
:1003A0000895709561957F4F0895AA1BBB1B51E17D
:1003B00007C0AA1FBB1FA617B70710F0A61BB70BD5
:1003C000881F991F5A95A9F780959095BC01CD017A
:0603D0000895F894FFCF30
:0203D600FF0026
:00000001FF
