:1000000071C0000024C1000052C1000086C1000080
:1000100086C0000084C0000082C0000080C00000D4
:100020007EC000007CC000007AC0000078C00000E4
:1000300076C0000074C0000072C0000070C00000F4
:100040006EC000006CC000006AC0000068C0000004
:1000500066C00000CFC0000062C0000060C00000A9
:100060005EC000005CC000005AC0000058C0000024
:1000700056C0000054C0000052C0000050C0000034
:100080004EC000004CC000004AC0000048C0000044
:1000900046C0000044C0000042C0000040C0000054
:1000A0003EC000003CC000003AC0000038C0000064
:1000B00036C0000034C0000032C0000030C0000074
:1000C0002EC000002CC000002AC0000028C0000084
:1000D00026C0000024C0000022C0000020C0000094
:1000E0001EC0000011241FBECFEFD1E2DEBFCDBF86
:1000F00012E0A0E0B2E0E0E0F6E000E00BBF02C0FA
:1001000007900D92A438B107D9F723E0A4E8B2E034
:1001100001C01D92AB38B207E1F745D16FC270CF75
:100120001092000280918602811104C08FEF8093AB
:1001300000020BC0813021F48DE68093000205C0DF
:10014000823019F481E080930002109285021092AF
:1001500084020895809184029091850218161906F0
:1001600034F40197909385028093840208958091DE
:100170008702813059F0823081F0811114C088E803
:1001800093E190938502809384020DC088EB9BE0FD
:10019000909385028093840206C088EE93E090934A
:1001A00085028093840280918602813089F4809157
:1001B0000002982F9370933029F4880F990B809345
:1001C000000214C0880F990B8160809300020EC05A
:1001D000823061F4809100028F3F29F0880F8F5F99
:1001E0008093000203C081E08093000280910002AE
:1001F00082B908951F920F920FB60F9211240BB679
:100200000F922F933F934F935F936F937F938F93AF
:100210009F93AF93BF93EF93FF93809188028111D7
:1002200002C012B801C096DFFF91EF91BF91AF916C
:100230009F918F917F916F915F914F913F912F91FE
:100240000F900BBE0F900FBE0F901F9018951F922E
:100250000F920FB60F9211240BB60F922F933F936C
:100260004F935F936F937F938F939F93AF93BF93BE
:10027000EF93FF9380918802809580938802882372
:1002800011F04EDF01C012B8FF91EF91BF91AF9115
:100290009F918F917F916F915F914F913F912F919E
:1002A0000F900BBE0F900FBE0F901F9018951F92CE
:1002B0000F920FB60F9211240BB60F922F933F930C
:1002C0004F935F936F937F938F939F93AF93BF935E
:1002D000EF93FF9380918802882361F080918602DA
:1002E000082E000C990B019663E070E049D18093D1
:1002F000860216DFFF91EF91BF91AF919F918F9191
:100300007F916F915F914F913F912F910F900BBE15
:100310000F900FBE0F901F9018951F920F920FB65F
:100320000F9211245F936F937F938F939F93AF935B
:10033000BF9380918802882379F080918702082EEC
:10034000000C990B019663E070E01AD1809387024C
:100350001092850210928402BF91AF919F918F916C
:100360007F916F915F910F900FBE0F901F90189526
:1003700080938802882311F0D3CE089512B808958F
:1003800090918802992319F080938602C9CE08952E
:1003900090918802992331F0809387021092850210
:1003A0001092840208951AB887E08BB99FEF91B933
:1003B00012B892E094BD21E025BD22E327BD9093C1
:1003C0006E009AE2909369008DBB93D07894A2D08E
:1003D00080E090E008958091C0008823E4F7809148
:1003E000C60008959091C00095FFFCCF8093C60091
:1003F00008950F931F93CF93DF938C01C0E0D0E05B
:1004000002C02196EFDFF801EC0FFD1F8081811102
:10041000F8CFDF91CF911F910F9108958DE0E2DF2A
:100420008AE0E0CF089561E072E08BE892E0CFD0FF
:10043000892B21F481E090E09BCF089564E072E085
:100440008BE892E0C4D0892B21F480E090E090CF3B
:10045000089580918802882309F446C045E050E061
:1004600068E072E08BE892E0BBD0892BD1F48091F8
:10047000890290918A020697B9F5809190028233A1
:1004800041F0833351F0813379F580E090E078CF0B
:10049000089581E090E074CF089582E090E070CFFD
:1004A000089546E050E06EE072E08BE892E098D06C
:1004B000892BD1F48091890290918A020797A1F447
:1004C00080919102823341F0833351F0813361F4A2
:1004D00080E090E05DCF089581E090E059CF0895ED
:1004E00082E090E055CF089599DF85E192E081CFD9
:1004F00008951092C5008CE08093C400E0ECF0E019
:1005000080818260808388E18093C10086E080934F
:10051000C200089585E292E06CDF5DDF8D3039F432
:1005200082DF7CDF10928A021092890221C088301B
:1005300089F02091890230918A02A9014F5F5F4FB3
:1005400050938A0240938902F901E557FD4F808359
:1005500049DF0EC02091890230918A0212161306DB
:100560003CF42150310930938A02209389023ADF0A
:10057000E0918902F0918A02E457FD4F1082CDCFBD
:1005800097FB072E16F4009406D077FD08D00BD009
:1005900007FC05D03EF4909581959F4F0895709586
:1005A00061957F4F0895AA1BBB1B51E107C0AA1F8D
:1005B000BB1FA617B70710F0A61BB70B881F991F04
:1005C0005A95A9F780959095BC01CD010895FB013E
:1005D000DC018D91019080190110D9F3990B0895D8
:1005E000FB01DC014150504030F08D9101908019A9
:1005F00019F40020B9F7881B990B0895F894FFCFE0
:10060000FF6F6E006F66660074797065200073700E
:100610006565642000496E76616C696420636F6D66
:100620006D616E6400226F6E22202D20656E616206
:100630006C65204C45440D0A226F666622202D20F1
:1006400064697361626C65204C45440D0A227479BB
:100650007065204E22202D206368616E6765204EF4
:100660003A20312D330D0A227370656564204E22C5
:10067000202D206368616E6765204E3A20312D334E
:040680000D0A00005F
:00000001FF
