S00F00004D4B5F4C4142342E737265631B
S113000071C0000022C1000050C1000084C1000082
S113001086C0000084C0000082C0000080C00000D0
S11300207EC000007CC000007AC0000078C00000E0
S113003076C0000074C0000072C0000070C00000F0
S11300406EC000006CC000006AC0000068C0000000
S113005066C00000CDC0000062C0000060C00000A7
S11300605EC000005CC000005AC0000058C0000020
S113007056C0000054C0000052C0000050C0000030
S11300804EC000004CC000004AC0000048C0000040
S113009046C0000044C0000042C0000040C0000050
S11300A03EC000003CC000003AC0000038C0000060
S11300B036C0000034C0000032C0000030C0000070
S11300C02EC000002CC000002AC0000028C0000080
S11300D026C0000024C0000022C0000020C0000090
S11300E01EC0000011241FBECFEFD1E2DEBFCDBF82
S11300F012E0A0E0B2E0E6EEF3E000E00BBF02C0E5
S113010007900D92A230B107D9F722E0A2E0B2E045
S113011001C01D92A730B207E1F728D162C170CFA8
S11301201092000280910402811103C09FEF90930A
S11301300002813019F49DE690930002823019F494
S113014081E080930002109203021092020208954B
S113015080910202909103021816190634F4019753
S11301609093030280930202089580910502811105
S113017007C088E893E1909303028093020211C0C0
S1130180813039F488EB9BE0909303028093020260
S113019008C0823031F488EE93E090930302809398
S11301A0020280910402813089F480910002982F28
S11301B09370933029F4880F990B8093000214C034
S11301C0880F990B8160809300020EC0823061F425
S11301D0809100028F3F29F0880F8F5F8093000287
S11301E003C081E0809300028091000281BB0895E6
S11301F01F920F920FB60F9211240BB60F922F93EA
S11302003F934F935F936F937F938F939F93AF939A
S1130210BF93EF93FF9380910602811102C011BA3C
S113022001C096DFFF91EF91BF91AF919F918F91A4
S11302307F916F915F914F913F912F910F900BBEE2
S11302400F900FBE0F901F9018951F920F920FB62C
S11302500F9211240BB60F922F933F934F935F93FA
S11302606F937F938F939F93AF93BF93EF93FF937A
S113027080910602809580930602882311F050DF56
S113028001C011BAFF91EF91BF91AF919F918F91EE
S11302907F916F915F914F913F912F910F900BBE82
S11302A00F900FBE0F901F9018951F920F920FB6CC
S11302B00F9211240BB60F922F933F934F935F939A
S11302C06F937F938F939F93AF93BF93EF93FF931A
S11302D080910602882361F080910402082E000CAC
S11302E0990B019663E070E055D08093040218DF07
S11302F0FF91EF91BF91AF919F918F917F916F91FA
S11303005F914F913F912F910F900BBE0F900FBEB5
S11303100F901F9018951F920F920FB60F921124F1
S11303205F936F937F938F939F93AF93BF938091CA
S11303300602882379F080910502082E000C990B9F
S1130340019663E070E026D08093050210920302C8
S113035010920202BF91AF919F918F917F916F9103
S11303605F910F900FBE0F901F9018951AB887E0F9
S11303708BB99FEF90BB11BA92E094BD21E025BDEB
S113038022E327BD90936E009AE2909369008DBB9F
S11303907894FFCF97FB072E16F4009406D077FDD0
S11303A008D00BD007FC05D03EF4909581959F4F63
S11303B00895709561957F4F0895AA1BBB1B51E169
S11303C007C0AA1FBB1FA617B70710F0A61BB70BC1
S11303D0881F991F5A95A9F780959095BC01CD0166
S10903E00895F894FFCF1C
S10503E6FF0012
S9030000FC
