:020000020000FC
:020000002AC014
:020004009BC09F
:020008009BC09B
:02000C009BC097
:1000540020C00FEF00BB00E001BB00E00AB907E0DD
:100064000BB94FEF53E168E89927AA27BB277727F5
:10007400882702E004BD05E005BD03E007BD02E0FA
:1000840000936E000AE20093690007E00DBB7894C8
:10009400FFCF13D0042F092301BB189570E080E033
:1000A400A03011F44FEF08C0A13011F44DE604C0A4
:1000B400A23011F440E000C008950B2F12E0019F1C
:1000C400039580172CF4703029F07A95081B882743
:1000D400801B0895752F862FA13071F4042F13E02F
:1000E4000123033029F0000F0395440F402B08959A
:1000F400000F440F402B0895A23049F44F3F09F4F8
:100104004427440F042F009511E00123402B089548
:100114009095C4DF0895903009F40895A395A33011
:1001240009F4AA27BBDF0895903009F40895B39524
:10013400B33009F4BB270895EBDF1895ECDF18956D
:04014400F3DF189538
:00000001FF
