:020000020000FC
:100000000FEF00BB00E001BB00E00AB907E00BB94D
:100010004FEF53E168E89927AA27BB27772788275E
:1000200000C0489B4DD0499B50D04A9B59D01DD011
:10003000042F092301BB01D0F4CF0FEF17E00A957D
:100040000030E9F71A951030D1F7089570E080E09C
:10005000A03011F44FEF08C0A13011F44DE604C0F8
:10006000A23011F440E000C008950B2F12E0019F70
:10007000039580172CF4703029F07A95081B882797
:10008000801B0895752F862FA13071F4042F13E083
:100090000123033029F0000F0395440F402B0895EE
:1000A000000F440F402B0895A23049F44F3F09F44C
:1000B0004427440F042F009511E00123402B08959D
:1000C000489BFECF9095C2DF0895499BFECF9030AC
:1000D00009F40895A395A33009F4AA27B7DF08957A
:1000E0004A9BFECF903009F40895B395B33009F4DC
:0400F000BB2708958D
:00000001FF
